:020000040800F2
:10000000000002207D300008B12F0008B92F000841
:10001000C12F0008C92F0008D12F000800000000E0
:10002000000000000000000000000000D92F0008C0
:10003000E52F000800000000F12F0008FD2F000848
:10004000CD300008CD300008CD300008CD3000089C
:10005000CD300008CD300008CD300008CD3000088C
:10006000CD300008CD300008CD300008CD3000087C
:10007000CD300008CD300008CD300008CD3000086C
:10008000CD300008CD300008CD300008CD3000085C
:1000900009300008CD300008CD300008CD30000810
:1000A000CD300008CD300008CD300008CD3000083C
:1000B000CD300008CD300008CD300008CD3000082C
:1000C000CD300008CD300008CD300008CD3000081C
:1000D000CD3000081D300008CD300008CD300008BC
:1000E000CD300008CD300008CD300008CD300008FC
:1000F000CD300008CD300008CD300008CD300008EC
:10010000CD300008CD300008CD300008CD300008DB
:10011000CD300008CD300008CD300008CD300008CB
:10012000CD300008CD300008CD300008CD300008BB
:10013000CD300008CD300008CD300008CD300008AB
:10014000CD300008CD300008CD300008CD3000089B
:10015000CD300008CD300008CD300008CD3000088B
:10016000CD300008CD300008CD300008CD3000087B
:10017000CD300008CD300008CD3000080000000070
:08018000CD300008CD3000086D
:1001880053B94AB9002908BF00281CBF4FF0FF31F6
:100198004FF0FF3000F00CB8ADF1080C6DE904CE5B
:1001A80003F0F2F8DDF804E0DDE9022304B070475B
:1001B800704700BF08B5064B1A783AB9054A1AB114
:1001C8000548AFF30080024B01221A7008BD00BF3A
:1001D8000C000020000000000837000808B5034B99
:1001E8001BB103490348AFF3008008BD00000000BD
:1001F800100000200837000880B400AF054BD3F882
:100208008830044A43F47003C2F8883000BFBD4602
:1002180080BC704700ED00E080B584B000AF786026
:100228007B68002B01D10123EDE07B6893F8203037
:10023800DBB2002B02D1786802F0CCFD7B681B682A
:100248001A687B681B6842F001021A6001F062FDBF
:10025800F86012E001F05EFD0246FB68D31A0A2B33
:100268000BD97B685B6A43F400327B685A627B680F
:10027800052283F820200123C5E07B681B685B68A2
:1002880003F00103002BE5D07B681B681A687B68C4
:100298001B6822F002021A6001F03CFDF86012E0CF
:1002A80001F038FD0246FB68D31A0A2B0BD97B688C
:1002B8005B6A43F400327B685A627B68052283F8E4
:1002C800202001239FE07B681B685B6803F0020322
:1002D800002BE5D17B681B7E012B08D17B681B684E
:1002E8001A687B681B6842F080021A6007E07B6826
:1002F8001B681A687B681B6822F080021A607B689A
:100308005B7E012B08D17B681B681A687B681B68B9
:1003180042F040021A6007E07B681B681A687B6835
:100328001B6822F040021A607B689B7E012B08D173
:100338007B681B681A687B681B6842F020021A6099
:1003480007E07B681B681A687B681B6822F020023C
:100358001A607B68DB7E012B08D17B681B681A68F2
:100368007B681B6822F010021A6007E07B681B6834
:100378001A687B681B6842F010021A607B681B7F52
:10038800012B08D17B681B681A687B681B6842F0E0
:1003980008021A6007E07B681B681A687B681B689C
:1003A80022F008021A607B685B7F012B08D17B680A
:1003B8001B681A687B681B6842F004021A6007E031
:1003C8007B681B681A687B681B6822F004021A6045
:1003D8007B689A687B68DB681A437B681B691A43E9
:1003E8007B685B6942EA03017B685B685A1E7B682D
:1003F8001B680A43DA617B6800225A627B68012223
:1004080083F82020002318461037BD4680BD000021
:1004180080B487B000AF786039607B6893F820308B
:10042800FB75FB7D012B03D0FB7D022B40F0BE80CA
:10043800644B3B613B69D3F8003243F001023B69EE
:10044800C3F800223B69D3F8003223F47C523B699D
:10045800C3F800223B69D3F800223B685B6A1B02A1
:100468001A433B69C3F800223B685B6903F01F032A
:10047800012202FA03F3FB603B69D3F81C22FB68F4
:10048800DB431A403B69C3F81C223B68DB69002B3D
:1004980023D13B69D3F80C22FB68DB431A403B6944
:1004A800C3F80C223B68DB6819043B685B689BB2A5
:1004B8003A68526919433B69483243F832103B683D
:1004C8009B6819043B681B689AB23B685B690A43DE
:1004D80039694833DB000B445A603B68DB69012B00
:1004E80022D13B69D3F80C22FB681A433B69C3F855
:1004F8000C223B681B6819043B685B689BB23A682E
:10050800526919433B69483243F832103B689B688B
:1005180019043B68DB689AB23B685B690A4339692E
:100528004833DB000B445A603B689B69002B09D1B8
:100538003B69D3F80422FB68DB431A403B69C3F8E4
:10054800042207E03B69D3F80422FB681A433B699D
:10055800C3F804223B681B69002B09D13B69D3F817
:100568001422FB68DB431A403B69C3F8142207E0F6
:100578003B69D3F81422FB681A433B69C3F8142279
:100588003B681B6A012B07D13B69D3F81C22FB6827
:100598001A433B69C3F81C223B69D3F8003223F0A5
:1005A80001023B69C3F80022002306E07B685B6A0E
:1005B80043F480227B685A62012318461C37BD46E3
:1005C80080BC70470064004080B584B000AF78609C
:1005D8007B6893F82030DBB2012B2ED17B68022296
:1005E80083F820207B681B681A687B681B6822F0E8
:1005F80001021A6001F08EFBF86012E001F08AFB3C
:100608000246FB68D31A0A2B0BD97B685B6A43F452
:1006180000327B685A627B68052283F82020012318
:1006280012E07B681B685B6803F00103002BE5D1CF
:100638007B6800225A62002306E07B685B6A43F409
:1006480000227B685A62012318461037BD4680BDD8
:1006580080B487B000AFF860B9607A603B60FB682F
:1006680093F82030FB75FB7D012B03D0FB7D022B1B
:1006780040F00381BB68002B0ED1FB681B68DB6868
:1006880003F00303002B16D1FB685B6A43F40012E6
:10069800FB685A620123F7E0FB681B681B6903F0DB
:1006A8000303002B07D1FB685B6A43F40012FB6865
:1006B8005A620123E8E0FB681A68BB681B331B0118
:1006C80013441B6803F004027B689A607B689B688C
:1006D800002B0CD1FB681A68BB681B331B01134441
:1006E8001B685B0DC3F30A027B681A600BE0FB68AA
:1006F8001A68BB681B331B0113441B68DB0823F013
:1007080060427B685A60FB681A68BB681B331B0130
:1007180013441B6803F002027B68DA60FB681A68FE
:10072800BB681B331B01134404331B6803F0080325
:10073800002B03D07B6808221A610BE0FB681A685B
:10074800BB681B331B01134404331B6803F00F02FF
:100758007B681A61FB681A68BB681B331B0113446A
:1007680004331B681B0ADAB27B689A61FB681A6853
:10077800BB681B331B01134404331B681B0C9AB260
:100788007B685A61FB681A68BB681B01134403F550
:10079800DC731B68DAB23B681A70FB681A68BB68BE
:1007A8001B01134403F5DC731B681A0A3B68013309
:1007B800D2B21A70FB681A68BB681B01134403F5B0
:1007C800DC731B681A0C3B680233D2B21A70FB68E0
:1007D8001A68BB681B01134403F5DC731B681A0E07
:1007E8003B680333D2B21A70FB681A68BB681B01F6
:1007F800134403F5DE731A683B680433D2B21A70E7
:10080800FB681A68BB681B01134403F5DE731B6899
:100818001A0A3B680533D2B21A70FB681A68BB68BB
:100828001B01134403F5DE731B681A0C3B6806337F
:10083800D2B21A70FB681A68BB681B01134403F52F
:10084800DE731B681A0E3B680733D2B21A70BB6896
:10085800002B08D1FB681B68DA68FB681B6842F04C
:100868002002DA6007E0FB681B681A69FB681B68EE
:1008780042F020021A61002306E0FB685B6A43F439
:100888008022FB685A62012318461C37BD4680BC8B
:10089800704780B485B000AF786039607B6893F8A2
:1008A8002030FB73FB7B012B02D0FB7B022B09D191
:1008B8007B681B6859697B681B683A680A435A61F8
:1008C800002306E07B685B6A43F480227B685A62F7
:1008D800012318461437BD4680BC704780B58AB0DE
:1008E80000AF786000237B627B681B685B693B62B2
:1008F8007B681B685B68FB617B681B689B68BB61E6
:100908007B681B68DB687B617B681B681B693B61D4
:100918007B681B689B69FB603B6A03F00103002B43
:100928007CD0BB6903F00103002B23D07B681B68D4
:1009380001229A60BB6903F00203002B03D0786898
:1009480000F083F916E0BB6903F00403002B04D020
:100958007B6A43F400637B620CE0BB6903F0080325
:10096800002B04D07B6A43F480537B6202E07868F2
:1009780000F086F9BB6903F48073002B24D07B68F0
:100988001B684FF480729A60BB6903F40073002BF4
:1009980003D0786800F062F916E0BB6903F480635D
:1009A800002B04D07B6A43F400537B620CE0BB69E4
:1009B80003F40063002B04D07B6A43F480437B621A
:1009C80002E0786800F065F9BB6903F48033002B16
:1009D80024D07B681B684FF480329A60BB6903F4AB
:1009E8000033002B03D0786800F041F916E0BB69AA
:1009F80003F48023002B04D07B6A43F400437B621A
:100A08000CE0BB6903F40023002B04D07B6A43F499
:100A180080337B6202E0786800F044F93B6A03F0B7
:100A28000803002B0CD07B6903F01003002B07D0C0
:100A38007B6A43F400737B627B681B681022DA6070
:100A48003B6A03F00403002B0BD07B6903F0080317
:100A5800002B06D07B681B680822DA60786800F0F3
:100A68002AF93B6A03F00203002B09D07B681B6854
:100A7800DB6803F00303002B02D0786802F09AFBCE
:100A88003B6A03F04003002B0CD03B6903F01003D2
:100A9800002B07D07B6A43F480637B627B681B680A
:100AA80010221A613B6A03F02003002B0BD03B692C
:100AB80003F00803002B06D07B681B6808221A6124
:100AC800786800F00AF93B6A03F01003002B09D09C
:100AD8007B681B681B6903F00303002B02D078684E
:100AE80000F0F2F83B6A03F40033002B0BD0FB69EB
:100AF80003F01003002B06D07B681B6810225A6095
:100B0800786800F0F3F83B6A03F48033002B0BD0CD
:100B1800FB6903F00803002B06D07B681B680822DA
:100B28005A60786800F0EBF83B6A03F40043002B46
:100B38007BD0FB6903F00403002B72D03B6A03F4FB
:100B48008073002B08D0FB6803F00103002B03D04F
:100B58007B6A43F001037B623B6A03F40073002B5A
:100B680008D0FB6803F00203002B03D07B6A43F034
:100B780002037B623B6A03F48063002B08D0FB68A6
:100B880003F00403002B03D07B6A43F004037B6269
:100B98003B6A03F40063002B43D0FB6803F0700347
:100BA800002B3ED0FB6803F07003602B2BD0602B2A
:100BB8002ED8502B22D0502B2AD8402B19D0402B7E
:100BC80026D8302B10D0302B22D8102B02D0202B37
:100BD80005D01DE07B6A43F008037B6219E07B6A5D
:100BE80043F010037B6214E07B6A43F020037B62CE
:100BF8000FE07B6A43F040037B620AE07B6A43F0C4
:100C080080037B6205E07B6A43F480737B6200E0CB
:100C180000BF7B681B689A697B681B6822F07002BA
:100C28009A617B681B6804225A607B6A002B08D093
:100C38007B685A6A7B6A1A437B685A62786800F054
:100C480067F800BF2837BD4680BD80B483B000AFC9
:100C5800786000BF0C37BD4680BC704780B483B055
:100C680000AF786000BF0C37BD4680BC704780B4C9
:100C780083B000AF786000BF0C37BD4680BC7047BA
:100C880080B483B000AF786000BF0C37BD4680BC2D
:100C9800704780B483B000AF786000BF0C37BD46A2
:100CA80080BC704780B483B000AF786000BF0C3759
:100CB800BD4680BC704780B483B000AF786000BF89
:100CC8000C37BD4680BC704780B483B000AF7860F5
:100CD80000BF0C37BD4680BC704780B483B000AFFE
:100CE800786000BF0C37BD4680BC704780B483B0C5
:100CF80000AF786000BF0C37BD4680BC704780B439
:100D080083B000AF786000BF0C37BD4680BC704729
:100D180080B483B000AF786000BF0C37BD4680BC9C
:100D28007047000080B586B000AF78607B68002B04
:100D380001D1012367E27B681B6803F00103002BE4
:100D480075D0884B9B6803F00C03042B0CD0854BA3
:100D58009B6803F00C03082B12D1824B5B6803F4E9
:100D68008003B3F5800F0BD17E4B1B6803F400336F
:100D7800002B5BD07B685B68002B57D1012342E2D4
:100D88007B685B68B3F5803F06D1764B1B68754A74
:100D980043F4803313601DE07B685B68B3F5A02FD4
:100DA8000CD1704B1B686F4A43F4802313606D4B62
:100DB8001B686C4A43F4803313600BE0694B1B6873
:100DC800684A23F480331360664B1B68654A23F432
:100DD800802313607B685B68002B13D000F09AFFB8
:100DE800386108E000F096FF02463B69D31A642B8D
:100DF80001D9032307E25B4B1B6803F40033002B84
:100E0800F0D014E000F086FF386108E000F082FFBF
:100E180002463B69D31A642B01D90323F3E1514BF2
:100E28001B6803F40033002BF0D100E000BF7B689F
:100E38001B6803F00203002B63D04A4B9B6803F046
:100E48000C03002B0BD0474B9B6803F00C03082BBB
:100E58001CD1444B5B6803F48003002B16D1414B33
:100E68001B6803F00203002B05D07B68DB68012BAD
:100E780001D00123C7E13B4B1B6823F0F8027B68D4
:100E88001B69DB00374913430B603AE07B68DB687A
:100E9800002B20D0344B01221A6000F03BFF386150
:100EA80008E000F037FF02463B69D31A022B01D94C
:100EB8000323A8E12B4B1B6803F00203002BF0D09F
:100EC800284B1B6823F0F8027B681B69DB00254967
:100ED80013430B6015E0244B00221A6000F01AFF40
:100EE800386108E000F016FF02463B69D31A022B6E
:100EF80001D9032387E11B4B1B6803F00203002B76
:100F0800F0D17B681B6803F00803002B36D07B68A0
:100F18005B69002B16D0154B01221A6000F0FAFE0F
:100F2800386108E000F0F6FE02463B69D31A022B4E
:100F380001D9032367E10B4B5B6F03F00203002B1E
:100F4800F0D01BE0094B00221A6000F0E3FE386184
:100F58000EE000F0DFFE02463B69D31A022B07D9E8
:100F6800032350E10038024000004742800E474208
:100F7800884B5B6F03F00203002BEAD17B681B6888
:100F880003F00403002B00F097800023FB75814BCE
:100F98001B6C03F08053002B0FD10023BB607D4BEB
:100FA8001B6C7C4A43F0805313647A4B1B6C03F030
:100FB8008053BB60BB680123FB75774B1B6803F448
:100FC8008073002B18D1744B1B68734A43F48073E9
:100FD800136000F09FFE386108E000F09BFE0246B7
:100FE8003B69D31A022B01D903230CE16A4B1B6816
:100FF80003F48073002BF0D07B689B68012B06D12B
:10100800644B1B6F634A43F0010313671CE07B6862
:101018009B68052B0CD15F4B1B6F5E4A43F00403A2
:1010280013675C4B1B6F5B4A43F0010313670BE0CC
:10103800584B1B6F574A23F001031367554B1B6F1F
:10104800544A23F0040313677B689B68002B15D070
:1010580000F060FE38610AE000F05CFE02463B6981
:10106800D31A41F28832934201D90323CBE0494B8A
:101078001B6F03F00203002BEED014E000F04AFED1
:1010880038610AE000F046FE02463B69D31A41F295
:101098008832934201D90323B5E03E4B1B6F03F01E
:1010A8000203002BEED1FB7D012B05D1394B1B6CC4
:1010B800384A23F0805313647B689B69002B00F047
:1010C800A180344B9B6803F00C03082B5CD07B6831
:1010D8009B69022B41D1314B00221A6000F01AFEA5
:1010E800386108E000F016FE02463B69D31A022B6D
:1010F80001D9032387E0274B1B6803F00073002BFB
:10110800F0D17B68DA697B681B6A1A437B685B6A83
:101118009B011A437B689B6A5B08013B1B041A43CB
:101128007B68DB6A1B061B4913434B601B4B012280
:101138001A6000F0EFFD386108E000F0EBFD0246B0
:101148003B69D31A022B01D903235CE0114B1B68BE
:1011580003F00073002BF0D054E0104B00221A600B
:1011680000F0D8FD386108E000F0D4FD02463B6984
:10117800D31A022B01D9032345E0064B1B6803F061
:101188000073002BF0D13DE07B689B69012B07D1F0
:10119800012338E0003802400070004060004742F8
:1011A8001B4B5B68FB607B689B69012B28D0FB6845
:1011B80003F480027B68DB699A4221D1FB6803F063
:1011C8003F027B681B6A9A421AD1FA6847F6C073D5
:1011D80013407A68526A9201934211D1FB6803F472
:1011E80040327B689B6A5B08013B1B049A4207D12B
:1011F800FB6803F070627B68DB6A1B069A4201D0C9
:10120800012300E0002318461837BD4680BD00BF03
:101218000038024080B584B000AF786039607B68E0
:10122800002B01D10123CCE0684B1B6803F00703B6
:101238003A689A420CD9654B3A68D2B21A70634B35
:101248001B6803F007033A689A4201D00123B8E00B
:101258007B681B6803F00203002B20D07B681B68A7
:1012680003F00403002B05D0594B9B68584A43F4FC
:10127800E05393607B681B6803F00803002B05D0DC
:10128800534B9B68524A43F460439360504B9B68AE
:1012980023F0F0027B689B684D4913438B607B68A1
:1012A8001B6803F00103002B44D07B685B68012BAB
:1012B80007D1474B1B6803F40033002B19D10123D6
:1012C8007FE07B685B68022B03D07B685B68032B3D
:1012D80007D13F4B1B6803F00073002B09D1012392
:1012E8006FE03B4B1B6803F00203002B01D1012385
:1012F80067E0374B9B6823F003027B685B683449DF
:1013080013438B6000F006FDF8600AE000F002FD70
:101318000246FB68D31A41F28832934201D903236B
:101328004FE02B4B9B6803F00C027B685B689B00CB
:101338009A42EBD1254B1B6803F007033A689A429F
:101348000CD2224B3A68D2B21A70204B1B6803F0B9
:1013580007033A689A4201D0012332E07B681B6890
:1013680003F00403002B08D0194B9B6823F4E052C8
:101378007B68DB68164913438B607B681B6803F046
:101388000803002B09D0124B9B6823F460427B684A
:101398001B69DB000E4913438B6000F021F80246FD
:1013A8000B4B9B681B0903F00F030A49CB5C22FA1D
:1013B80003F3094A1360094B1B68184600F068FCE0
:1013C800002318461037BD4680BD00BF003C0240D0
:1013D80000380240203700080000002004000020E8
:1013E8002DE9B04F90B000AF00237B630023FB636F
:1013F80000233B630023BB63584B9B6803F00C033B
:10140800082B0DD0082B00F2A080002B02D0042B53
:1014180003D09AE0524BBB639AE0524BBB6397E010
:101428004E4B5B6803F03F037B634C4B5B6803F4F4
:101438008003002B27D0494B5B689B0900223B6245
:101448007A623B6AC3F308000021464B03FB01F2B2
:10145800002300FB03F31344424AA0FB0221F96274
:10146800BA62FA6A1344FB627B6B0022BB61FA61C1
:10147800D7E90623D7E90A01FEF782FE02460B46A2
:101488001346FB6353E0354B5B689B0900223B61C5
:101498007A613B69C3F3080A4FF0000B52465B467A
:1014A8004FF000004FF00001590141EAD2615001AC
:1014B80002460B46B2EB0A0863EB0B094FF0000239
:1014C8004FF000034FEA891343EA98634FEA881202
:1014D800B2EB080463EB09054FF000024FF000037C
:1014E800EB0043EA5473E20014461D4614EB0A036A
:1014F8003B6045EB0B037B604FF000024FF00003AD
:10150800D7E9004529468B02214643EA91532146F3
:101518008A02104619467B6B0022BB60FA60D7E945
:101528000223FEF72DFE02460B461346FB630B4BC8
:101538005B681B0C03F0030301335B003B63FA6B2E
:101548003B6BB2FBF3F3BB6302E0054BBB6300BF2D
:10155800BB6B18464037BD46BDE8B08F0038024027
:101568000024F40040787D0180B400AF024B1B6872
:101578001846BD4680BC70470000002080B500AF0B
:10158800FFF7F2FF0246054B9B689B0A03F007032F
:101598000349CB5C22FA03F3184680BD00380240A9
:1015A8003037000880B500AFFFF7DEFF0246054B75
:1015B8009B685B0B03F007030349CB5C22FA03F338
:1015C800184680BD003802403037000880B489B022
:1015D80000AF7860396000237B6100233B61002302
:1015E800BB610023FB616BE10122FB6902FA03F393
:1015F8007B613B681B687A6913403B613A697B6988
:101608009A4240F05A813B685B6803F00303012B60
:1016180005D03B685B6803F00303022B30D17B687D
:101628009B68BB61FB695B00032202FA03F3DB439F
:10163800BA691340BB613B68DA68FB695B0002FA70
:1016480003F3BA691343BB617B68BA699A607B6824
:101658005B68BB610122FB6902FA03F3DB43BA69E9
:101668001340BB613B685B681B0903F00102FB691F
:1016780002FA03F3BA691343BB617B68BA695A601B
:101688003B685B6803F00303032B17D07B68DB68B8
:10169800BB61FB695B00032202FA03F3DB43BA690F
:1016A8001340BB613B689A68FB695B0002FA03F36D
:1016B800BA691343BB617B68BA69DA603B685B68E7
:1016C80003F00303022B23D1FB69DA087B68083295
:1016D80053F82230BB61FB6903F007039B000F221C
:1016E80002FA03F3DB43BA691340BB613B681A692A
:1016F800FB6903F007039B0002FA03F3BA6913437B
:10170800BB61FB69DA087B680832B96943F82210C3
:101718007B681B68BB61FB695B00032202FA03F369
:10172800DB43BA691340BB613B685B6803F00302A3
:10173800FB695B0002FA03F3BA691343BB617B6878
:10174800BA691A603B685B6803F44033002B00F009
:10175800B4800023FB605F4B5B6C5E4A43F48043BC
:1017680053645C4B5B6C03F48043FB60FB685A4A30
:10177800FB699B08023352F82330BB61FB6903F015
:1017880003039B000F2202FA03F3DB43BA691340F9
:10179800BB617B68514A93422BD07B68504A934285
:1017A80025D07B684F4A93421FD07B684E4A9342AC
:1017B80019D07B684D4A934213D07B684C4A9342B8
:1017C8000DD07B684B4A934207D07B684A4A9342C4
:1017D80001D107230EE008230CE006230AE00523C5
:1017E80008E0042306E0032304E0022302E00123C7
:1017F80000E00023FA6902F0030292009340BA69FC
:101808001343BB613449FB699B080233BA6941F849
:1018180023203A4B9B68BB613B69DB43BA691340A1
:10182800BB613B685B6803F48013002B03D0BA6983
:101838003B691343BB61314ABB6993602F4BDB683B
:10184800BB613B69DB43BA691340BB613B685B68BA
:1018580003F40013002B03D0BA693B691343BB613F
:10186800264ABB69D360254B5B68BB613B69DB4398
:10187800BA691340BB613B685B6803F40033002B13
:1018880003D0BA693B691343BB611C4ABB69536007
:101898001A4B1B68BB613B69DB43BA691340BB61E8
:1018A8003B685B6803F48033002B03D0BA693B695B
:1018B8001343BB61114ABB691360FB690133FB61C8
:1018C800FB690F2B7FF690AE00BF00BF2437BD46E3
:1018D80080BC7047003802400038014000000240D8
:1018E8000004024000080240000C024000100240C0
:1018F8000014024000180240001C0240003C014055
:1019080080B584B000AF78607B689B6DFB6000F0A9
:1019180001FAB8607B6893F83530DBB2022B08D047
:101928007B6880225A657B68002283F83420012373
:1019380052E07B681B681A687B681B6822F01602F5
:101948001A607B681B685A697B681B6822F08002F2
:101958005A617B681B6C002B03D17B689B6C002B46
:1019680007D07B681B681A687B681B6822F008022E
:101978001A607B681B681A687B681B6822F0010282
:101988001A6013E000F0C6F90246BB68D31A052BAB
:101998000CD97B6820225A657B68032283F835209E
:1019A8007B68002283F83420032315E07B681B68DA
:1019B8001B6803F00103002BE4D17B68DB6D3F2239
:1019C8009A40FB689A607B68012283F835207B681F
:1019D800002283F83420002318461037BD4680BD06
:1019E80080B483B000AF78607B6893F83530DBB2A1
:1019F800022B04D07B6880225A6501230CE07B68A7
:101A0800052283F835207B681B681A687B681B6889
:101A180022F001021A60002318460C37BD4680BC2C
:101A28007047000080B485B000AF78607B6803F031
:101A38000703FB600C4BDB68BB60BA684FF6FF031B
:101A48001340BB60FB681A02BB68134343F0BF63D3
:101A580043F40033BB60044ABB68D36000BF14374B
:101A6800BD4680BC704700BF00ED00E080B400AF09
:101A7800044BDB681B0A03F007031846BD4680BC0D
:101A8800704700BF00ED00E080B483B000AF0346AC
:101A9800FB7197F90730002B0BDBFB7903F01F0272
:101AA800064997F907305B09012000FA02F241F86C
:101AB800232000BF0C37BD4680BC704700E100E022
:101AC80080B483B000AF03463960FB7197F90730E3
:101AD800002B0ADB3B68DAB20C4997F90730120190
:101AE800D2B20B4483F800230AE03B68DAB2084913
:101AF800FB7903F00F03043B1201D2B20B441A76B0
:101B080000BF0C37BD4680BC704700BF00E100E055
:101B180000ED00E080B489B000AFF860B9607A6089
:101B2800FB6803F007037B617B69033B042B04D844
:101B38007B69C3F10703FB6101E00423FB617B6957
:101B48000433062B03D97B69033BBB6101E0002307
:101B5800BB614FF0FF32FB6902FA03F3DA43BB685B
:101B68001A40BB699A404FF0FF31BB6901FA03F391
:101B7800D9437B680B40134318462437BD4680BCC5
:101B88007047000080B582B000AF78607B68013B89
:101B9800B3F1807F01D301230FE00A4A7B68013B40
:101BA80053600F214FF0FF30FFF78AFF054B0022EB
:101BB8009A60044B07221A60002318460837BD466E
:101BC80080BD00BF10E000E080B582B000AF786053
:101BD8007868FFF727FF00BF0837BD4680BD80B58E
:101BE80086B000AF0346B9607A60FB7300237B615F
:101BF800FFF73CFF78617A68B9687869FFF78AFF70
:101C0800024697F90F3011461846FFF759FF00BFF3
:101C18001837BD4680BD80B582B000AF0346FB7162
:101C280097F907301846FFF72FFF00BF0837BD4662
:101C380080BD80B582B000AF78607868FFF7A2FFFA
:101C4800034618460837BD4680BD000080B500AF82
:101C58000E4B1B680D4A43F4007313600B4B1B6853
:101C68000A4A43F480631360084B1B68074A43F42D
:101C7800807313600320FFF7A7FF0F2000F008F818
:101C880001F0D2F90023184680BD00BF003C024095
:101C980080B582B000AF7860124B1A68124B1B787F
:101CA80019464FF47A73B3FBF1F3B2FBF3F318461A
:101CB800FFF7BFFF0346002B01D001230EE07B682E
:101CC8000F2B0AD8002279684FF0FF30FFF787FF03
:101CD800064A7B681360002300E001231846083792
:101CE800BD4680BD00000020080000200400002040
:101CF80080B400AF054B1B781A46054B1B6813448C
:101D0800034A136000BFBD4680BC7047080000202E
:101D18002800002080B400AF024B1B681846BD465F
:101D280080BC70472800002080B584B000AF786080
:101D3800FFF7F0FFB8607B68FB60FB68B3F1FF3F1B
:101D480005D00A4B1B781A46FB681344FB6000BF9A
:101D5800FFF7E0FF0246BB68D31AFA689A42F7D841
:101D680000BF00BF1037BD4680BD00BF080000207F
:101D780080B582B000AF78607B68002B01D1012369
:101D880042E07B6893F84130DBB2002B06D17B68D8
:101D9800002283F84020786801F096F87B682422B6
:101DA80083F841207B681B68DA687B681B6822F42B
:101DB8000052DA60786800F091FC7B681B681A6949
:101DC8007B681B6822F490421A617B681B685A6919
:101DD8007B681B6822F02A025A617B681B68DA68F4
:101DE8007B681B6842F40052DA607B6800225A6400
:101DF8007B68202283F841207B68202283F84220D8
:101E08007B6800225A63002318460837BD4680BD08
:101E180080B5BAB000AF78607B681B681B68C7F8EC
:101E2800E4307B681B68DB68C7F8E0307B681B68B8
:101E38005B69C7F8DC300023C7F8D8300023C7F83F
:101E4800D430D7F8E43003F00F03C7F8D830D7F808
:101E5800D830002B0FD1D7F8E43003F02003002B43
:101E680009D0D7F8E03003F02003002B03D07868BE
:101E780000F076FB71E2D7F8D830002B00F0DC8058
:101E8800D7F8DC3003F00103002B06D1D7F8E03097
:101E980003F49073002B00F0CF80D7F8E43003F000
:101EA8000103002B0BD0D7F8E03003F48073002B2C
:101EB80005D07B685B6C43F001027B685A64D7F8F5
:101EC800E43003F00403002B0BD0D7F8DC3003F028
:101ED8000103002B05D07B685B6C43F002027B6832
:101EE8005A64D7F8E43003F00203002B0BD0D7F87C
:101EF800DC3003F00103002B05D07B685B6C43F0FA
:101F080004027B685A64D7F8E43003F00803002B16
:101F180011D0D7F8E03003F02003002B05D1D7F813
:101F2800DC3003F00103002B05D07B685B6C43F0C9
:101F380008027B685A647B685B6C002B00F008829F
:101F4800D7F8E43003F02003002B08D0D7F8E030AE
:101F580003F02003002B02D0786800F001FB7B68B7
:101F68001B685B6903F04003C3F38013DBB2C7F857
:101F7800D4307B685B6C03F00803002B03D1D7F8DF
:101F8800D430002B4FD0786800F010FA7B681B68BB
:101F98005B6903F04003402B41D17B681B68143315
:101FA800C7F89C30D7F89C3053E8003FC7F8983002
:101FB800D7F8983023F04003C7F8D0307B681B6807
:101FC8001433D7F8D020C7F8A820C7F8A430D7F81A
:101FD800A410D7F8A82041E80023C7F8A030D7F804
:101FE800A030002BD9D17B68DB6B002B13D07B682A
:101FF800DB6B8A4A1A657B68DB6B1846FFF7F0FCD7
:102008000346002B16D07B68DB6B1B6D7A68D26B9E
:10201800104698470EE0786800F0B4F90AE078684E
:1020280000F0B0F906E0786800F0ACF97B680022AF
:102038005A648DE100BF8BE17B681B6B012B40F07C
:102048006781D7F8E43003F01003002B00F06081BB
:10205800D7F8E03003F01003002B00F0598100237B
:10206800BB607B681B681B68BB607B681B685B6820
:10207800BB60BB687B681B685B6903F04003402B4F
:1020880040F0CE807B68DB6B1B685B68A7F8BE30CE
:10209800B7F8BE30002B00F0A9807B689B8DB7F89D
:1020A800BE209A4280F0A2807B68B7F8BE20DA850D
:1020B8007B68DB6BDB69B3F5807F00F088807B6829
:1020C8001B680C33C7F88830D7F8883053E8003FCE
:1020D800C7F88430D7F8843023F48073C7F8B83051
:1020E8007B681B680C33D7F8B820C7F89420C7F86A
:1020F8009030D7F89010D7F8942041E80023C7F81B
:102108008C30D7F88C30002BD9D17B681B681433FE
:102118007B677B6F53E8003F3B673B6F23F001030E
:10212800C7F8B4307B681B681433D7F8B420C7F8F5
:102138008020FB67F96FD7F8802041E80023BB6750
:10214800BB6F002BE1D17B681B6814333B663B6E89
:1021580053E8003FFB65FB6D23F04003C7F8B03040
:102168007B681B681433D7F8B020FA66BB66B96E73
:10217800FA6E41E800237B667B6E002BE3D17B6817
:10218800202283F842207B6800221A637B681B6840
:102198000C33FB64FB6C53E8003FBB64BB6C23F05F
:1021A8001003C7F8AC307B681B680C33D7F8AC2039
:1021B800BA657B65796DBA6D41E800233B653B6D77
:1021C800002BE3D17B68DB6B1846FFF799FB7B6834
:1021D80002225A637B689A8D7B68DB8D9BB2D31A87
:1021E8009BB21946786800F0D6F8B3E07B689B8DFF
:1021F800B7F8BE209A4240F0AD807B68DB6BDB69A4
:10220800B3F5807F40F0A6807B6802225A637B6822
:102218009B8D1946786800F0BEF89BE07924000889
:102228007B689A8D7B68DB8D9BB2D31AA7F8CE307A
:102238007B68DB8D9BB2002B00F08E80B7F8CE3028
:10224800002B00F089807B681B680C33BB63BB6B79
:1022580053E8003F7B637B6B23F49073C7F8C83067
:102268007B681B680C33D7F8C8207A643B64396CE8
:102278007A6C41E80023FB63FB6B002BE3D17B689E
:102288001B6814337B627B6A53E8003F3B623B6AFE
:1022980023F00103C7F8C4307B681B681433D7F8F0
:1022A800C4203A63FB62F96A3A6B41E80023BB62D7
:1022B800BB6A002BE3D17B68202283F842207B682D
:1022C80000221A637B681B680C333B613B6953E847
:1022D800003FFB60FB6823F01003C7F8C0307B6841
:1022E8001B680C33D7F8C020FA61BB61B969FA6979
:1022F80041E800237B617B69002BE3D17B680222E4
:102308005A63B7F8CE301946786800F044F823E0ED
:10231800D7F8E43003F08003002B09D0D7F8E03079
:1023280003F08003002B03D0786800F0B2F814E0C3
:10233800D7F8E43003F04003002B0ED0D7F8E03094
:1023480003F04003002B08D0786800F0F1F804E0AF
:1023580000BF02E000BF00E000BFE837BD4680BD17
:1023680080B483B000AF786000BF0C37BD4680BC36
:10237800704780B483B000AF786000BF0C37BD46AB
:1023880080BC704780B483B000AF786000BF0C3762
:10239800BD4680BC704780B483B000AF78600B4600
:1023A8007B8000BF0C37BD4680BC704780B495B0B9
:1023B80000AF78607B681B680C337B637B6B53E8EA
:1023C800003F3B633B6B23F49073FB647B681B68A3
:1023D8000C33FA6C3A64FB63F96B3A6C41E80023FE
:1023E800BB63BB6B002BE5D17B681B6814333B6276
:1023F8003B6A53E8003FFB61FB6923F00103BB64C0
:102408007B681B681433BA6CFA62BB62B96AFA6AF1
:1024180041E800237B627B6A002BE5D17B681B6B5C
:10242800012B19D17B681B680C33FB60FB6853E8F0
:10243800003FBB60BB6823F010037B647B681B68AC
:102448000C337A6CBA617B617969BA6941E8002317
:102458003B613B69002BE5D17B68202283F8422051
:102468007B6800221A6300BF5437BD4680BC7047A2
:1024780080B584B000AF78607B689B6BFB60FB68BD
:102488000022DA85F868FFF77DFF00BF1037BD46E8
:1024980080BD80B485B000AF78607B6893F8413028
:1024A800DBB2212B3ED17B689B68B3F5805F14D1EA
:1024B8007B681B69002B10D17B681B6AFB60FB687B
:1024C8001B881A467B681B68C2F308025A607B683F
:1024D8001B6A9A1C7B681A6208E07B681B6A591C95
:1024E8007A6811621A787B681B685A607B68DB8C93
:1024F8009BB2013B9BB27A681946D184002B0FD15D
:102508007B681B68DA687B681B6822F08002DA60E7
:102518007B681B68DA687B681B6842F04002DA60F7
:10252800002300E0022318461437BD4680BC7047DC
:1025380080B582B000AF78607B681B68DA687B681A
:102548001B6822F04002DA607B68202283F8412071
:102558007868FFF705FF002318460837BD4680BD99
:1025680080B58CB000AF78600023FB620023BB62AB
:102578007B6893F84230DBB2222B40F0AA807B685C
:102588009B68B3F5805F15D17B681B69002B11D15F
:102598007B689B6ABB627B681B685B689BB2C3F302
:1025A80008039AB2BB6A1A807B689B6A9A1C7B688C
:1025B8009A6224E07B689B6AFB627B689B68B3F540
:1025C800805F07D07B689B68002B0AD17B681B69FA
:1025D800002B06D17B681B685B68DAB2FB6A1A704D
:1025E80008E07B681B685B68DBB203F07F03DAB244
:1025F800FB6A1A707B689B6A5A1C7B689A627B68C4
:10260800DB8D9BB2013B9BB27A681946D185002BC2
:102618005DD17B681B68DA687B681B6822F0200242
:10262800DA607B681B68DA687B681B6822F4807252
:10263800DA607B681B685A697B681B6822F00102B4
:102648005A617B68202283F842207B6800225A6303
:102658007B681B6B012B35D17B6800221A637B6872
:102668001B680C337B617B6953E8003F3B613B6926
:1026780023F010037B627B681B680C337A6A3A622A
:10268800FB61F9693A6A41E80023BB61BB69002B29
:10269800E5D17B681B681B6803F01003102B0AD177
:1026A8000023FB607B681B681B68FB607B681B68FA
:1026B8005B68FB60FB687B689B8D19467868FFF751
:1026C8006AFE02E07868FFF754FE002302E0002368
:1026D80000E0022318463037BD4680BD2DE9B04FD3
:1026E800C0B000AFC7F8F400D7F8F4301B681B6916
:1026F80023F44050D7F8F430D968D7F8F4301A6882
:1027080040EA01031361D7F8F4309A68D7F8F43037
:102718001B691A43D7F8F4305B691A43D7F8F430C9
:10272800DB691343C7F8F830D7F8F4301B68DB6867
:1027380023F4164121F00C01D7F8F4301A68D7F8C1
:10274800F8300B43D360D7F8F4301B685B6923F487
:102758004070D7F8F4309969D7F8F4301A6840EA2D
:1027680001035361D7F8F4301A688F4B9A4205D0A9
:10277800D7F8F4301A688D4B9A4204D1FEF712FF4D
:10278800C7F8FC0003E0FEF7F9FEC7F8FC00D7F82D
:10279800F430DB69B3F5004F40F00C81D7F8FC301A
:1027A8000022C7F8E830C7F8EC20D7E93A452246B6
:1027B8002B469118B9655B41FB65D7E9162321467D
:1027C80012EB0108294643EB01094FF000024FF0D4
:1027D80000034FEAC90343EA58734FEAC802904618
:1027E8009946234618EB0303C7F8E0302B4649EB1C
:1027F8000303C7F8E430D7F8F4305B680022C7F861
:10280800D830C7F8DC20D7E936120B46DB183B6511
:10281800134642EB03037B65D7E91423D7E9380154
:10282800FDF7AEFC02460B46614BA3FB02235B0996
:102838001C01D7F8FC300022C7F8D030C7F8D420E4
:10284800D7E9348942464B469118B9645B41FB6429
:10285800D7E91223414612EB010A494643EB010B23
:102868004FF000024FF000034FEACB0343EA5A73DC
:102878004FEACA0292469B4643461AEB0303C7F83F
:10288800C8304B464BEB0303C7F8CC30D7F8F430CD
:102898005B680022C7F8C030C7F8C420D7E93012F7
:1028A8000B46DB183B64134642EB03037B64D7E912
:1028B8001023D7E93201FDF763FC02460B461146A7
:1028C8003B4BA3FB01235B09642202FB03F3CB1AF6
:1028D800DB0003F13202364BA3FB02235B095B00EA
:1028E80003F4F8731C44D7F8FC300022C7F8B8305A
:1028F800C7F8BC20D7E92E8942464B469118B963E0
:102908005B41FB63D7E90E234146511839634946B9
:102918004B417B634FF000024FF00003D7E90CAB4B
:102928005946CB00514643EA51735146CA001046F6
:102938001946034642469B18C7F8B0304B460A462C
:1029480042EB0303C7F8B430D7F8F4305B680022D1
:10295800C7F8A830C7F8AC20D7E92A120B46DB180D
:10296800BB62134642EB0303FB62D7E90A23D7E9AC
:102978002C01FDF705FC02460B460D4BA3FB021389
:102988005B09642101FB03F3D31ADB003233084AE5
:10299800A2FB03235B0903F00702D7F8F4301B6896
:1029A80022449A6006E100BF001001400014014073
:1029B8001F85EB51D7F8FC300022C7F8A030C7F8C4
:1029C800A420D7E9288942464B46911839625B41D1
:1029D8007B62D7E9082341465418494643EB010571
:1029E8004FF000024FF00003EB0043EA5473E2009B
:1029F80014461D464346E318C7F898304B4645EB46
:102A08000303C7F89C30D7F8F4305B680022C7F896
:102A18009030C7F894204FF000024FF00003D7E938
:102A2800244529468B00214643EA917321468A00B2
:102A3800D7E92601FDF7A4FB02460B46604BA3FB32
:102A480002235B091C01D7F8FC300022C7F8883044
:102A5800C7F88C20D7E9228942464B469118B961BC
:102A68005B41FB61D7E90623414651183961494664
:102A78004B417B614FF000024FF00003D7E904ABF4
:102A88005946CB00514643EA51735146CA00104695
:102A98001946034642469B18C7F880304B460A46FB
:102AA80042EB0303C7F88430D7F8F4305B680022A0
:102AB800BB67FA674FF000024FF00003D7E91E89A1
:102AC80049468B00414643EA917341468A00D7E95B
:102AD8002001FDF755FB02460B461146384BA3FB78
:102AE80001235B09642202FB03F3CB1A1B01323377
:102AF800334AA2FB03235B0903F0F0031C44D7F815
:102B0800FC3000223B677A67D7E91C8942464B466E
:102B18009118B9605B41FB60D7E90223414651181F
:102B2800396049464B417B604FF000024FF000038B
:102B3800D7E900AB5946CB00514643EA5173514699
:102B4800CA0010461946034642469B18BB664B46C8
:102B58000A4642EB0303FB66D7F8F4305B680022B1
:102B68003B667A664FF000024FF00003D7E91889F8
:102B780049468B00414643EA917341468A00D7E9AA
:102B88001A01FDF7FDFA02460B460D4BA3FB021393
:102B98005B09642101FB03F3D31A1B013233084A92
:102BA800A2FB03235B0903F00F02D7F8F4301B687C
:102BB80022449A6000BF07F58077BD46BDE8B08F14
:102BC8001F85EB5180B500AFFFF740F800F00CF817
:102BD80000F07AF800F0C8F800F04CF900F073FA49
:102BE80000F077FAFCE7000080B594B000AF07F179
:102BF800200330220021184600F056FD07F10C038F
:102C080000221A605A609A60DA601A610023BB6079
:102C1800284B1B6C274A43F080531364254B1B6CCD
:102C280003F08053BB60BB6800237B60224B1B68AA
:102C3800214A43F4804313601F4B1B6803F480430D
:102C48007B607B6802233B620123FB6210233B63AA
:102C58000223BB630023FB6308233B64A8237B6434
:102C68000223BB640423FB6407F120031846FEF724
:102C780059F80346002B01D000F020F80F23FB6021
:102C880002233B6100237B614FF4A053BB614FF4E7
:102C98008053FB6107F10C0305211846FEF7BAFAC9
:102CA8000346002B01D000F009F800BF5037BD469D
:102CB80080BD00BF003802400070004080B400AF03
:102CC80072B600BF00BFFDE780B487B000AF002335
:102CD8007B61244B1B6B234A43F001031363214B95
:102CE8001B6B03F001037B617B6900233B611D4B78
:102CF8001B6B1C4A43F0020313631A4B1B6B03F054
:102D080002033B613B690023FB60164B1B6B154AB2
:102D180043F008031363134B1B6B03F00803FB60BA
:102D2800FB680023BB600F4B1B6B0E4A43F0040388
:102D380013630C4B1B6B03F00403BB60BB680023DD
:102D48007B60084B1B6B074A43F080031363054BFA
:102D58001B6B03F080037B607B6800BF1C37BD469C
:102D680080BC70470038024080B500AF174B184A46
:102D78001A60164B03225A60144B00229A60134BB8
:102D88000022DA60114B4FF400221A610F4B4FF406
:102D980040125A610D4B00221A760C4B01225A76CA
:102DA8000A4B00229A76094B0122DA76074B002259
:102DB8001A77064B00225A770448FDF72DFA034686
:102DC800002B01D0FFF77AFF00BF80BD2C00002048
:102DD8000064004080B58AB000AF786007F1140342
:102DE80000221A605A609A60DA601A617B681B6870
:102DF8001D4A934233D100233B611C4B1B6C1B4A79
:102E080043F000731364194B1B6C03F000733B61B0
:102E18003B690023FB60154B1B6B144A43F0080306
:102E28001363124B1B6B03F00803FB60FB6803235F
:102E38007B610223BB610023FB6103233B620923FF
:102E48007B6207F1140319460948FEF7BFFB00220D
:102E580001211420FEF7C3FE1420FEF7DCFE00BF9C
:102E68002837BD4680BD00BF0064004000380240DE
:102E7800000C024080B500AF114B124A1A60104B8B
:102E88004FF416525A600E4B00229A600C4B0022E7
:102E9800DA600B4B00221A61094B0C225A61084B6D
:102EA80000229A61064B0022DA610548FEF760FFAE
:102EB8000346002B01D0FFF701FF00BF80BD00BF14
:102EC800540000200010014080B58AB000AF78603F
:102ED80007F1140300221A605A609A60DA601A61D6
:102EE8007B681B682C4A934252D100233B612B4BD1
:102EF8005B6C2A4A43F010035364284B5B6C03F065
:102F080010033B613B690023FB60244B1B6B234A86
:102F180043F002031363214B1B6B03F00203FB60B6
:102F2800FB680023BB601D4B1B6B1C4A43F001036D
:102F380013631A4B1B6B03F00103BB60BB68802350
:102F48007B610223BB610023FB6103233B620723F0
:102F58007B6207F1140319461148FEF737FB4FF45B
:102F680000737B610223BB610023FB6103233B6287
:102F780007237B6207F1140319460A48FEF726FB6C
:102F8800002200212520FEF72AFE2520FEF743FE19
:102F980000BF2837BD4680BD001001400038024000
:102FA800000402400000024080B400AF00BFFDE70B
:102FB80080B400AF00BFFDE780B400AF00BFFDE7FD
:102FC80080B400AF00BFFDE780B400AF00BFFDE7ED
:102FD80080B400AF00BFBD4680BC704780B400AF6E
:102FE80000BFBD4680BC704780B400AF00BFBD467F
:102FF80080BC704780B500AFFEF77AFE00BF80BD89
:1030080080B500AF0248FDF769FC00BF80BD00BF76
:103018002C00002080B500AF0248FEF7F9FE00BF83
:1030280080BD00BF5400002080B483B000AF0023EF
:103038007B600F4B5B6C0E4A43F4804353640C4B2C
:103048005B6C03F480437B607B6800233B60084B28
:103058001B6C074A43F080531364054B1B6C03F049
:1030680080533B603B6800BF0C37BD4680BC70474F
:1030780000380240DFF834D0FDF7BEF80C480D499F
:103088000D4A002302E0D458C4500433C4188C42BB
:10309800F9D30A4A0A4C002301E013600432A24221
:1030A800FBD300F009FBFFF78DFD704700000220FD
:1030B800000000200C000020483700080C00002009
:1030C800FC000020FEE780B500AF00F03BF800BF31
:1030D80080BD80B500AF0220FEF726FE00BF80BD90
:1030E80080B487B000AFF86087ED020AC7ED010A27
:1030F800396097ED017AD7ED027A77EE677AC7EDF6
:10310800057ABB683B61FB6807EE903AB8EEE77A50
:10311800D7ED057A67EE276A01223B6802FA03F3C6
:10312800013B07EE903AF8EEE77A86EEA77AD7EDFC
:10313800047A77EE277AB0EE670A1C37BD4680BC62
:103148007047000080B58AB000AF01233B620023BE
:10315800BB610123FB6100233B6100237B614FF4CA
:1031680080433B6000237B604FF6E073BB60002325
:10317800FB603B4619460E48FDF74AF90346002B0B
:1031880001D0FFF79BFD0A48FDF71EFA0346002B06
:1031980001D0FFF793FD02210548FDF77AFB0346AE
:1031A800002B01D0FFF78AFD00BF2837BD4680BD40
:1031B8002C00002090B58DB000AF78607B681B684C
:1031C8006F4A934240F0D88007F1080307F11002D4
:1031D80000217868FDF73CFA3B7A03F00F03DBB275
:1031E800013B87F82F3097F82F30032B00F2C4806B
:1031F8003B7A97F82F201B09D8B2624913465B0027
:103208001344DB000B44063302461A70BB7A1AB229
:103218007B7A1BB21B021BB213431BB297F82F20F9
:1032280098B2584913465B001344DB000B44023341
:1032380002461A803B7B1B09DBB21AB2FB7A1BB22F
:103248001B011BB213431BB297F82F2098B24D49AC
:1032580013465B001344DB000B4402461A807B7B59
:103268001AB23B7B1BB21B021BB203F470631BB286
:1032780013431BB297F82F2098B2424913465B00BC
:103288001344DB000B44043302461A80BB7B97F8D7
:103298002F2018B23B4913465B001344DB000B4454
:1032A800083302461A80FB7B97F82F2018B235495D
:1032B80013465B001344DB000B440A3302461A80B2
:1032C80097F82F202F4913465B001344DB000B446B
:1032D80002331B8897F82F401021F2EE090ABAEE44
:1032E800090A1846FFF7FCFEF0EE407A254A234605
:1032F8005B002344DB0013441033C3ED007A97F8D6
:103308002F20204913465B001344DB000B441B8825
:1033180097F82F400C21F3EE0E0ABBEE0E0A184662
:10332800FFF7DEFEF0EE407A164A23465B002344A0
:10333800DB0013440C33C3ED007A97F82F201149B2
:1033480013465B001344DB000B4404331B8897F8D7
:103358002F400C21F2EE080ABAEE080A1846FFF7C9
:10336800BFFEF0EE407A074A23465B002344DB00A9
:1033780013441433C3ED007A00BF3437BD4690BD03
:10338800006400409C0000202DE9F04782B006460A
:10339800DDF828E00846B4460D46002B4ED18A4297
:1033A80014466DD9B2FA82F242B1C2F120039540B7
:1033B80026FA03F394401D4306FA02FC260CA7B232
:1033C800B5FBF6F14FEA1C4306FB115543EA0543EA
:1033D80001FB07F0984209D9E31801F1FF3580F0A5
:1033E8000381984240F20081023923441B1A1FFAD4
:1033F8008CFCB3FBF6F006FB10334CEA034C00FBE5
:1034080007F363450AD914EB0C0C00F1FF3580F083
:10341800ED80634540F2EA80A444023840EA014066
:10342800ACEB030C0021BEF1000F04D02CFA02F320
:103438000022CEE9003202B0BDE8F0878B4209D9FC
:10344800BEF1000F01D0CEE900610021084602B0AC
:10345800BDE8F087B3FA83F1174600294DD18342BE
:1034680002D3B24200F20F81B6EB070C60EB030304
:1034780001201D46BEF1000FDDD0CEE900C5DAE718
:10348800002A00F098801A46B4FA84F3002B40F022
:10349800AF800B1B270CA6B20121B3FBF7F54FEA4F
:1034A8001C4007FB153340EA034306FB05F8984523
:1034B80007D9E31805F1FF3002D2984500F2E880F9
:1034C8000546A3EB08031FFA8CFCB3FBF7F007FBD8
:1034D80010334CEA034C06FB00F3634508D914EBA0
:1034E8000C0C00F1FF3602D2634500F2CE80304664
:1034F800ACEB030C40EA054095E7C1F120058B4091
:1035080022FA05FC4CEA030C00FA01F426FA05F34A
:10351800E84002FA01F943EA04084FEA1C4206FAB5
:1035280001FAB0FBF2F71FFA8CF602FB17004FEA1C
:10353800184444EA004407FB06F0A0420AD91CEBF1
:10354800040407F1FF3380F09C80A04240F2998088
:10355800023F6444241A1FFA88F3B4FBF2F002FB1A
:10356800104443EA044300FB06F69E4209D91CEBCB
:10357800030300F1FF3480F082809E427FD9023835
:10358800634440EA0740A0FB09749B1BA3423E46E4
:10359800A04664D361D0BEF1000F0AD0BAEB060290
:1035A80063EB080303FA05F5CA401543CB40CEE99F
:1035B800005300213FE7730843EAC1734A08190C16
:1035C80041EA02414FEAC67C9BB2B2FBF4F02646C0
:1035D800A04627461F2243EA0143B1FBF4F1A3EBBF
:1035E800080341EA004158E72946FFE6284615E75F
:1035F8001A46C3F120019C4026FA01F320FA01F192
:1036080090400343270C06FA02FCB1FBF7F0A6B280
:1036180007FB1015190C41EA054100FB06F58D4220
:103628003BD9611801D28D4220D8491B0138B1FB22
:10363800F7F5019505FB06F8019D9BB207FB1511EF
:1036480043EA0143434526D2E31805F1FF31C6D2C8
:103658004345C4D2A91E2344C1E7BA459BD2B7EB60
:10366800090664EB0C040138A04694E7651B29445D
:103678000238B1FBF7F5019505FB06F8DCE72046B3
:103688007FE71F4666E70846F4E6A44402382FE7BA
:10369800023D234415E70199A1E7491BB1FBF7F562
:1036A800019505FB06F8C7E702440346934200D19B
:1036B800704703F8011BF9E770B50D4B0D4C002658
:1036C8001D1BB6EBA50F09D100F01AF80A4C0B4BDD
:1036D80000261D1BB6EBA50F05D170BD54F8043BA1
:1036E80098470136EDE754F8043B98470136F1E76F
:1036F80040370008403700084037000844370008C2
:10370800F8B500BFF8BC08BC9E467047F8B500BFC6
:08371800F8BC08BC9E46704796
:103720000000000000000000010203040607080971
:08373000000000000102030487
:0837380058FCFF7F01000000B6
:04374000E501000897
:04374400BD010008BB
:0C3748000024F40010000000010000004C
:040000050800307D42
:00000001FF
